:100000000C9467000C948F000C948F000C948F005C
:100010000C948F000C948F000C948F000C948F0024
:100020000C948F000C948F000C948F000C949B0404
:100030000C948F000C948F000C948F000C948F0004
:100040000C9451040C948F000C941F040C94F9032D
:100050000C948F000C948F000C948F000C948F00E4
:100060000C948F000C948F008D029402A002B102B8
:10007000B302BA02C602D702ED02EF020000000886
:10008000000201000003040700000000000000005F
:1000900000000000250028002B00000000002400C4
:1000A00027002A00040404040404040402020202D7
:1000B000020203030303030301020408102040802B
:1000C0000102040810200102040810205C0511241C
:1000D0001FBECFEFD8E0DEBFCDBF11E0A0E0B1E0A2
:1000E000E2E2F1E102C005900D92A231B107D9F729
:1000F00022E0A2E1B1E001C01D92A530B207E1F714
:1001000010E0C7E6D0E004C02197FE010E9470080D
:10011000C636D107C9F70E9401060C948F080C94CB
:10012000000090E0FC01E854FF4F2491FC01EC55E5
:10013000FF4F8491882399F090E0880F991FFC016C
:10014000E656FF4FA591B491FC01E057FF4F859112
:1001500094918FB7F894EC91E22BEC938FBF0895B4
:10016000CF92DF92EF92FF920F931F93CF93DF9383
:100170006C017A018B01C0E0D0E0CE15DF0581F083
:10018000D8016D918D01D601ED91FC910190F08126
:10019000E02DC6010995892B11F02196EECF7E0145
:1001A000C701DF91CF911F910F91FF90EF90DF90EA
:1001B000CF900895089580E090E00895FC01538D5C
:1001C000448D252F30E0842F90E0821B930B541731
:1001D00010F0CF96089501970895FC01918D828DBE
:1001E000981761F0828DDF01A80FB11D5D968C918B
:1001F000928D9F5F9F73928F90E008958FEF9FEF96
:100200000895FC01918D828D981731F0828DE80F51
:10021000F11D858D90E008958FEF9FEF0895FC010B
:10022000918D228D892F90E0805C9F4F821B9109D8
:100230008F739927089586E291E00E940F0121E0D3
:10024000892B09F420E0822F0895FC01848DDF01C1
:10025000A80FB11DA35ABF4F2C91848D90E0019639
:100260008F739927848FA689B7892C93A089B18928
:100270008C91837080648C93938D848D981306C0C9
:100280000288F389E02D80818F7D80830895EF922D
:10029000FF920F931F93CF93DF93EC0181E0888F40
:1002A0009B8D8C8D981305C0E889F989808185FD27
:1002B00026C0F62E0B8D10E00F5F1F4F0F73112716
:1002C000E02E8C8DE8120CC00FB607FCFACFE8893F
:1002D000F989808185FFF5CFCE010E942501F1CFFC
:1002E0008B8DFE01E80FF11DE35AFF4FF0829FB79F
:1002F000F8940B8FEA89FB89808180620AC09FB7DE
:10030000F894EE89FF896083E889F9898081837098
:10031000806480839FBF81E090E0DF91CF911F9147
:100320000F91FF90EF900895CF93DF93EC01888DAC
:100330008823C9F0EA89FB89808185FD05C0A889E9
:10034000B9898C9186FD0FC00FB607FCF5CF80816F
:1003500085FFF2CFA889B9898C9185FFEDCFCE01B9
:100360000E942501E7CFDF91CF91089580E090E0D2
:10037000892B29F00E941B0181110C940000089523
:1003800090E0FC01E458FF4F2491FC01E854FF4F3A
:100390003491FC01EC55FF4FE491EE2309F43CC08D
:1003A000222339F1233091F038F42130A9F02230A2
:1003B00001F584B58F7D12C0273091F02830A1F06F
:1003C0002430B9F4809180008F7D03C0809180003B
:1003D0008F77809380000DC084B58F7784BD09C06E
:1003E0008091B0008F7703C08091B0008F7D8093A3
:1003F000B000F0E0EE0FFF1FE057FF4FA591B49162
:100400009FB7F894611104C08C913095382302C0D5
:10041000EC913E2B3C939FBF0895CF93DF93EC016B
:100420008091F0019091F101029709F5C130D10559
:1004300069F024F42097D9F460E009C0C230D105F6
:1004400061F0C330D10599F460E008C061E08091AB
:10045000F4010E94C00161E006C061E08091F401F6
:100460000E94C00160E08091F6010E94C00180916D
:10047000F0019091F101049709F03FC0C130D1051E
:10048000B9F04CF42097C9F561E08091F4010E9425
:10049000C00160E013C0C230D105D9F0C330D1052E
:1004A00061F561E08091F4010E94C00160E017C035
:1004B00060E08091F4010E94C00161E08091F6014A
:1004C0000E94C00161E08091F8010E94C00160E0DB
:1004D00010C060E08091F4010E94C00161E0809151
:1004E000F6010E94C00160E08091F8010E94C00105
:1004F00061E08091FA010E94C0018091F001909129
:10050000F101059709F086C0CA30D10508F082C014
:10051000FE01EC5CFF4F0C94700860E08091F401E8
:100520000E94C00161E061C060E08091F4010E941E
:10053000C00161E08091F6010E94C00160E05AC0F4
:1005400060E08091F4010E94C00161E08091F601B9
:100550000E94C00160E08091F8010E94C00161E04A
:100560004EC060E001C061E08091F4010E94C001D2
:1005700061E006C061E08091F4010E94C00160E08A
:100580008091F6010E94C00160E00BC061E08091A3
:10059000F4010E94C00160E08091F6010E94C00158
:1005A00061E08091F8010E94C00161E010C061E04B
:1005B0008091F4010E94C00160E08091F6010E94E8
:1005C000C00161E08091F8010E94C00160E080916B
:1005D000FA010E94C00160E017C061E001C060E064
:1005E0008091F4010E94C00160E08091F6010E94B8
:1005F000C00161E08091F8010E94C00160E080913B
:10060000FA010E94C00161E08091FC01DF91CF916D
:100610000C94C001DF91CF9108958F929F92AF9279
:10062000BF92EF92FF920F931F93CF93DF93EC0152
:1006300097FF04C0CC27DD27C81BD90B1816190655
:100640003CF481E090E09093E9018093E80106C0DA
:10065000892B21F01092E9011092E80104E010E0EA
:100660005AE0E52EF12C209709F489C03FB7F894A1
:100670008091220190912301A0912401B091250144
:1006800026B5A89B05C02F3F19F00196A11DB11DED
:100690003FBFBA2FA92F982F8827820F911DA11D28
:1006A000B11D42E0880F991FAA1FBB1F4A95D1F7C1
:1006B0004091FE015091FF01609100027091010292
:1006C0004C015D01841A950AA60AB70A4091EA0115
:1006D0005091EB016091EC017091ED01841695064B
:1006E000A606B70608F4BFCF8093FE019093FF01E2
:1006F000A0930002B09301022091E8013091E9013A
:100700008091F2019091F3012130310589F4019635
:100710009093F3018093F2012091EE013091EF016B
:1007200082179307C1F41092F3011092F20113C0E3
:10073000892B41F48091EE019091EF019093F301A8
:100740008093F2018091F2019091F30101979093CF
:10075000F3018093F20121972091F0013091F10192
:100760008091F2019091F3012530310511F4B70128
:1007700001C0B8010E945C080E940D0274CFDF9195
:10078000CF911F910F91FF90EF90BF90AF909F90EE
:100790008F90089560E088E00E94C00160E089E0E9
:1007A0000E94C00160E08AE00E94C00160E08BE02E
:1007B0000C94C001CF93C0E4C0937C0080917A0078
:1007C000806480937A0080917A0086FDFCCF8091CE
:1007D00078002091790090E0922B843F91402CF496
:1007E00081E090E00E940D03E7CFCF9108950E9431
:1007F0008A081F920F920FB60F9211242F933F93E6
:100800004F935F936F937F938F939F93AF93BF9318
:10081000EF93FF9386E291E00E942501FF91EF9113
:10082000BF91AF919F918F917F916F915F914F9108
:100830003F912F910F900FBE0F901F9018951F9210
:100840000F920FB60F9211242F938F939F93EF93D4
:10085000FF93E0913601F09137018081E0913C01F6
:10086000F0913D0182FD12C0908180913F018F5F28
:100870008F7320914001821751F0E0913F01F0E029
:10088000EA5DFE4F958F80933F0101C08081FF910B
:10089000EF919F918F912F910F900FBE0F901F900E
:1008A00018951F920F920FB60F9211242F933F931A
:1008B0008F939F93AF93BF938091140190911501F3
:1008C000A0911601B09117013091130123E0230F7D
:1008D0002D3720F40196A11DB11D05C026E8230F78
:1008E0000296A11DB11D20931301809314019093D2
:1008F0001501A0931601B0931701809122019091E8
:100900002301A0912401B09125010196A11DB11DE3
:100910008093220190932301A0932401B093250199
:10092000BF91AF919F918F913F912F910F900FBEEB
:100930000F901F9018951F920F920FB60F921124CF
:100940002F933F934F935F936F937F938F939F93D7
:10095000AF93BF93EF93FF938091120187FF05C080
:1009600010928500109284001BC020911201022E6B
:10097000000C330B8091E70190E02817390784F4CD
:1009800080911201082E000C990BFC01EE0FFF1F45
:100990008E0F9F1FFC01ED53FE4F808186FD15C019
:1009A000809112018F5F8093120120911201022E1B
:1009B000000C330B8091E70190E028173907C4F44D
:1009C000809112018C3064F113C080911201082EC5
:1009D000000C990BFC01EE0FFF1F8E0F9F1FFC01F7
:1009E000ED53FE4F808160E08F730E94C001D8CF2D
:1009F0008091840090918500049680349C4918F47D
:100A000080E49CE905C08091840090918500049663
:100A100090938900809388008FEF809312013BC0F0
:100A2000209184003091850080911201082E000CE5
:100A3000990BFC01EE0FFF1F8E0F9F1FFC01ED5362
:100A4000FE4F81819281820F931F90938900809342
:100A5000880080911201082E000C990BFC01EE0F0A
:100A6000FF1F8E0F9F1FFC01ED53FE4F808186FFFD
:100A700012C080911201082E000C990BFC01EE0FA0
:100A8000FF1F8E0F9F1FFC01ED53FE4F808161E021
:100A90008F730E94C001FF91EF91BF91AF919F9121
:100AA0008F917F916F915F914F913F912F910F9017
:100AB0000FBE0F901F9018951092290110922801D7
:100AC00088EE93E0A0E0B0E080932A0190932B01A0
:100AD000A0932C01B0932D0184E091E09093270125
:100AE0008093260185EC90E090933301809332014E
:100AF00084EC90E0909335018093340180EC90E099
:100B0000909337018093360181EC90E09093390106
:100B10008093380182EC90E090933B0180933A01FE
:100B200086EC90E090933D0180933C0110923F0150
:100B30001092400110924101109242018091E70110
:100B40008C30A0F491E0980F9093E701809302021B
:100B500090E0FC01EE0FFF1F8E0F9F1FFC01ED5375
:100B6000FE4F88EB9BE09283818303C08FEF8093DD
:100B700002021092F3011092F2011092E901109218
:100B8000E8011092FE011092FF01109200021092F3
:100B9000010280EA95E09093EF018093EE0188E0F6
:100BA00090E09093F5018093F40189E090E09093B8
:100BB000F7018093F6018AE090E09093F901809329
:100BC000F8018BE090E09093FB018093FA0188E0BC
:100BD0000E9491008091F6010E9491008091F8019D
:100BE0000E9491008091FA010E9491001092FD01F3
:100BF0001092FC0184E090E09093F1018093F00169
:100C00000895789484B5826084BD84B5816084BD84
:100C100085B5826085BD85B5816085BD80916E009A
:100C2000816080936E0010928100809181008260CB
:100C30008093810080918100816080938100809108
:100C400080008160809380008091B10084608093F7
:100C5000B1008091B00081608093B00080917A00F3
:100C6000846080937A0080917A00826080937A0019
:100C700080917A00816080937A0080917A00806808
:100C800080937A001092C1002091EE013091EF0123
:100C9000032E000C440B550B60E077E883E993E0EA
:100CA0000E94ED07CA01B9012CE030E040E050E0BD
:100CB0000E94ED072093EA013093EB014093EC0191
:100CC0005093ED01809102028C3008F050C086E014
:100CD0000E94910080910202E82FF0E09F01220F14
:100CE000331FE20FF31FED53FE4F9081907C96600F
:100CF000908310920302109204026CE00E9450084C
:100D00009CE0899FB001112440E050E09B01240F3A
:100D1000351FF901EE0FFF1F2E0F3F1FF901ED5395
:100D2000FE4F908196FD16C04F5F5F4F4C305105CE
:100D300069F781110FC01092800082E080938100DA
:100D40001092850010928400B19A80916F008260A9
:100D500080936F00E0910202F0E0CF01880F991FAD
:100D6000E80FF91FED53FE4F808180648083E0918E
:100D70003601F091370182E08083E0913201F091F9
:100D800033011082E0913401F09135018FEC8083C2
:100D900010923E01E0913A01F0913B0186E08083A0
:100DA000E0913801F0913901808180618083E09188
:100DB0003801F0913901808188608083E0913801A9
:100DC000F0913901808180688083E0913801F09151
:100DD000390180818F7D80830E94DA030E94CA03DB
:100DE000A8E8CA2ED12CB8E5AB2EB2E0BB2EC4EBDE
:100DF0004C2E512C612C712C86E291E00E940F0147
:100E000008970CF4E7C086E291E00E94ED008C01A7
:100E1000909321018093200186E291E00E94ED00F1
:100E200086E291E00E94ED00F82E80931E019093DF
:100E30001F0186E291E00E94ED00EC0190931D01FC
:100E400080931C0186E291E00E94ED0086E291E031
:100E50000E94ED0086E291E00E94ED0086E291E0C2
:100E60000E94ED00C80183709927892B11F19F2CF6
:100E7000812C7401EC0EFD1EC7010F2C000CAA0B77
:100E8000BB0B8093180190931901A0931A01B093A2
:100E90001B0100FF07C00E94DA03C7010E940D0377
:100EA0000E94CA0301FF05C0C7010E940D030E94F2
:100EB000CA0302FF04C00E94DA030E94CA0303FFB0
:100EC00074C0C03282E0D807E4F5D7FD06C0C53B48
:100ED000D1052CF0C4EBD0E002C0C0E0D0E080919E
:100EE00003027601E81AF10887FDF394EE0CFF1C6B
:100EF000EE0CFF1C0F2C000C000B110B8091040258
:100F00009501281B310987FD3395220F331F220FCE
:100F1000331FC901330FAA0BBB0B9C01AD012E1966
:100F20003F09400B510BDE010E941708A3019201FB
:100F30000E94ED07DA01C9018E0D9F1DA01FB11F90
:100F4000EC01809102028C3080F5909103029601B1
:100F5000291B310997FD3395220F331F220F331FB1
:100F6000C217D30784F090910402A501491B5109CF
:100F700097FD5395440F551F440F551F9E014C1765
:100F80005D070CF49A0122503109220F331F4FB72D
:100F9000F89490E0FC01EE0FFF1F8E0F9F1FFC01E5
:100FA000ED53FE4F328321834FBF8091200184FF98
:100FB0000CC080911C0190911D01892B11F061E002
:100FC00001C060E087E00E94C0016FEF86E291E01F
:100FD0000E9447010E94B6010FCF052E97FB1EF419
:100FE00000940E94040857FD07D00E941F0807FCC8
:100FF00003D04EF40C9404085095409530952195FB
:101000003F4F4F4F5F4F0895909580957095619534
:101010007F4F8F4F9F4F08950E944108A59F900DCD
:10102000B49F900DA49F800D911D11240895B7FFCA
:101030000C940C080E940C08821B930B0895A1E2EB
:101040001A2EAA1BBB1BFD010DC0AA1FBB1FEE1F42
:10105000FF1FA217B307E407F50720F0A21BB30B8D
:10106000E40BF50B661F771F881F991F1A9469F709
:1010700060957095809590959B01AC01BD01CF0165
:101080000895A29FB001B39FC001A39F700D811D61
:101090001124911DB29F700D811D1124911D089581
:1010A000991B79E004C0991F961708F0961B881FBA
:1010B0007A95C9F78095089597FB072E16F400944A
:1010C00007D077FD09D00E94760807FC05D03EF4D2
:1010D000909581959F4F0895709561957F4F0895E4
:1010E000EE0FFF1F0590F491E02D0994AA1BBB1B86
:1010F00051E107C0AA1FBB1FA617B70710F0A61B18
:10110000B70B881F991F5A95A9F780959095BC0138
:10111000CD01089581E090E0F8940C948F08F89444
:02112000FFCFFF
:10112200000000004701B000DE0094010F01ED0055
:021132000101B9
:107E0000112484B714BE81FFFDD085E080938100EA
:107E100082E08093C00088E18093C10096E0909357
:107E2000C20090E19093C400809360008EE0809344
:107E30006000259A86E020E33CEF91E030938500D6
:107E40002093840096BBB09BFECF1D9AA8958150CD
:107E5000A9F7C0E0D0E008E138E0F32EEE24E39487
:107E600045E0B42E51E1A52E13E0A7D0813491F462
:107E7000A4D0D82EAED082E8D81203C084E096D029
:107E800092C0E1E8DE1203C084E090D08CC083E0B1
:107E90008DD089C0823419F484E1A7D084C08534A0
:107EA00019F485E0A2D07FC0853549F486D0C82F6B
:107EB00084D0D0E0D82BCC0FDD1F8BD074C086359A
:107EC00029F484E092D080E071D06DC0843609F04E
:107ED0003FC073D072D0982E70D0C115F0E7DF0785
:107EE00038F4FE0117BFE895C12CDD24D39403C0FC
:107EF000C12CDD24D39461D0F60181936F019E12D1
:107F0000FACFC115F0E7DF0718F0FE0117BFE895BB
:107F100060D007B600FCFDCFFE01A0E0B1E08C917F
:107F200011962C91119790E0922B0C01E7BEE895E9
:107F3000112432961296A03881E0B80781F7FE012D
:107F4000B7BEE89507B600FCFDCFA7BEE8952BC0ED
:107F50008437B1F432D031D0982E2FD03AD0892C3A
:107F6000FE016F018FEFC81AD80A84911FD08A943E
:107F7000F6018110F6CF21969A94C90DD11D13C038
:107F8000853741F426D08EE111D085E90FD08FE0FE
:107F90000DD009C0813531F400936000F09260008B
:107FA00018D001C016D080E101D05FCF9091C00001
:107FB00095FFFCCF8093C60008958091C00087FF95
:107FC000FCCF8091C00084FD01C0A8958091C600BF
:107FD0000895F3DF803239F088E18093600088E013
:107FE00080936000FFCF84E1E1CFCF93C82FE5DF1E
:107FF000C150E9F7CF91EDCFE0E6F0E098E1908352
:1080000080830895E0E6F0E088E180831082EE2727
:04801000FF270994A9
:027FFE00040479
:0400000300007E007B
:00000001FF
